{
  "_format": "hh-sol-artifact-1",
  "contractName": "FunToken",
  "sourceName": "contracts/FunToken.sol",
  "abi": [
    {
      "inputs": [
        {
          "internalType": "uint256",
          "name": "_initialSupply",
          "type": "uint256"
        }
      ],
      "stateMutability": "nonpayable",
      "type": "constructor"
    },
    {
      "anonymous": false,
      "inputs": [
        {
          "indexed": true,
          "internalType": "address",
          "name": "_owner",
          "type": "address"
        },
        {
          "indexed": true,
          "internalType": "address",
          "name": "_spender",
          "type": "address"
        },
        {
          "indexed": false,
          "internalType": "uint256",
          "name": "_value",
          "type": "uint256"
        }
      ],
      "name": "Approval",
      "type": "event"
    },
    {
      "anonymous": false,
      "inputs": [
        {
          "indexed": true,
          "internalType": "address",
          "name": "_from",
          "type": "address"
        },
        {
          "indexed": true,
          "internalType": "address",
          "name": "_to",
          "type": "address"
        },
        {
          "indexed": false,
          "internalType": "uint256",
          "name": "_value",
          "type": "uint256"
        }
      ],
      "name": "Transfer",
      "type": "event"
    },
    {
      "inputs": [],
      "name": "_userId",
      "outputs": [
        {
          "internalType": "uint256",
          "name": "",
          "type": "uint256"
        }
      ],
      "stateMutability": "view",
      "type": "function"
    },
    {
      "inputs": [
        {
          "internalType": "address",
          "name": "_spender",
          "type": "address"
        },
        {
          "internalType": "uint256",
          "name": "_value",
          "type": "uint256"
        }
      ],
      "name": "approve",
      "outputs": [
        {
          "internalType": "bool",
          "name": "success",
          "type": "bool"
        }
      ],
      "stateMutability": "nonpayable",
      "type": "function"
    },
    {
      "inputs": [
        {
          "internalType": "address",
          "name": "",
          "type": "address"
        }
      ],
      "name": "balanceOf",
      "outputs": [
        {
          "internalType": "uint256",
          "name": "",
          "type": "uint256"
        }
      ],
      "stateMutability": "view",
      "type": "function"
    },
    {
      "inputs": [],
      "name": "getTokenHolder",
      "outputs": [
        {
          "internalType": "address[]",
          "name": "",
          "type": "address[]"
        }
      ],
      "stateMutability": "view",
      "type": "function"
    },
    {
      "inputs": [
        {
          "internalType": "address",
          "name": "_address",
          "type": "address"
        }
      ],
      "name": "getTokenHolderData",
      "outputs": [
        {
          "internalType": "uint256",
          "name": "",
          "type": "uint256"
        },
        {
          "internalType": "address",
          "name": "",
          "type": "address"
        },
        {
          "internalType": "address",
          "name": "",
          "type": "address"
        },
        {
          "internalType": "uint256",
          "name": "",
          "type": "uint256"
        },
        {
          "internalType": "bool",
          "name": "",
          "type": "bool"
        }
      ],
      "stateMutability": "view",
      "type": "function"
    },
    {
      "inputs": [
        {
          "internalType": "uint256",
          "name": "",
          "type": "uint256"
        }
      ],
      "name": "holderToken",
      "outputs": [
        {
          "internalType": "address",
          "name": "",
          "type": "address"
        }
      ],
      "stateMutability": "view",
      "type": "function"
    },
    {
      "inputs": [],
      "name": "name",
      "outputs": [
        {
          "internalType": "string",
          "name": "",
          "type": "string"
        }
      ],
      "stateMutability": "view",
      "type": "function"
    },
    {
      "inputs": [],
      "name": "ownerOfContract",
      "outputs": [
        {
          "internalType": "address",
          "name": "",
          "type": "address"
        }
      ],
      "stateMutability": "view",
      "type": "function"
    },
    {
      "inputs": [],
      "name": "standard",
      "outputs": [
        {
          "internalType": "string",
          "name": "",
          "type": "string"
        }
      ],
      "stateMutability": "view",
      "type": "function"
    },
    {
      "inputs": [],
      "name": "symbol",
      "outputs": [
        {
          "internalType": "string",
          "name": "",
          "type": "string"
        }
      ],
      "stateMutability": "view",
      "type": "function"
    },
    {
      "inputs": [
        {
          "internalType": "address",
          "name": "",
          "type": "address"
        }
      ],
      "name": "tokenHolderInfos",
      "outputs": [
        {
          "internalType": "uint256",
          "name": "_tokenId",
          "type": "uint256"
        },
        {
          "internalType": "address",
          "name": "_from",
          "type": "address"
        },
        {
          "internalType": "address",
          "name": "_to",
          "type": "address"
        },
        {
          "internalType": "uint256",
          "name": "_totalToken",
          "type": "uint256"
        },
        {
          "internalType": "bool",
          "name": "_tokenHolder",
          "type": "bool"
        }
      ],
      "stateMutability": "view",
      "type": "function"
    },
    {
      "inputs": [],
      "name": "totalSupply",
      "outputs": [
        {
          "internalType": "uint256",
          "name": "",
          "type": "uint256"
        }
      ],
      "stateMutability": "view",
      "type": "function"
    },
    {
      "inputs": [
        {
          "internalType": "address",
          "name": "_to",
          "type": "address"
        },
        {
          "internalType": "uint256",
          "name": "_value",
          "type": "uint256"
        }
      ],
      "name": "transfer",
      "outputs": [
        {
          "internalType": "bool",
          "name": "success",
          "type": "bool"
        }
      ],
      "stateMutability": "nonpayable",
      "type": "function"
    },
    {
      "inputs": [
        {
          "internalType": "address",
          "name": "_from",
          "type": "address"
        },
        {
          "internalType": "address",
          "name": "_to",
          "type": "address"
        },
        {
          "internalType": "uint256",
          "name": "_value",
          "type": "uint256"
        }
      ],
      "name": "transferFrom",
      "outputs": [
        {
          "internalType": "bool",
          "name": "success",
          "type": "bool"
        }
      ],
      "stateMutability": "nonpayable",
      "type": "function"
    }
  ],
  "bytecode": "0x60806040526040518060400160405280600881526020017f46756e546f6b656e0000000000000000000000000000000000000000000000008152506000908051906020019062000051929190620001d6565b506040518060400160405280600381526020017f46554e0000000000000000000000000000000000000000000000000000000000815250600190805190602001906200009f929190620001d6565b506040518060400160405280600e81526020017f46756e546f6b656e20562e302e3100000000000000000000000000000000000081525060029080519060200190620000ed929190620001d6565b50348015620000fb57600080fd5b506040516200169a3803806200169a8339818101604052810190620001219190620002c6565b33600560006101000a81548173ffffffffffffffffffffffffffffffffffffffff021916908373ffffffffffffffffffffffffffffffffffffffff1602179055508060086000600560009054906101000a900473ffffffffffffffffffffffffffffffffffffffff1673ffffffffffffffffffffffffffffffffffffffff1673ffffffffffffffffffffffffffffffffffffffff1681526020019081526020016000208190555080600381905550506200035d565b828054620001e49062000327565b90600052602060002090601f01602090048101928262000208576000855562000254565b82601f106200022357805160ff191683800117855562000254565b8280016001018555821562000254579182015b828111156200025357825182559160200191906001019062000236565b5b50905062000263919062000267565b5090565b5b808211156200028257600081600090555060010162000268565b5090565b600080fd5b6000819050919050565b620002a0816200028b565b8114620002ac57600080fd5b50565b600081519050620002c08162000295565b92915050565b600060208284031215620002df57620002de62000286565b5b6000620002ef84828501620002af565b91505092915050565b7f4e487b7100000000000000000000000000000000000000000000000000000000600052602260045260246000fd5b600060028204905060018216806200034057607f821691505b60208210811415620003575762000356620002f8565b5b50919050565b61132d806200036d6000396000f3fe608060405234801561001057600080fd5b50600436106100ea5760003560e01c806370a082311161008c57806395d89b411161006657806395d89b411461028f578063a9059cbb146102ad578063ba8e3557146102dd578063bc4530e7146102fb576100ea565b806370a08231146101fb578063760b06c51461022b57806382b682631461025b576100ea565b806323b872dd116100c857806323b872dd1461015b57806329cc66ed1461018b578063468229ae146101bf5780635a3b7e42146101dd576100ea565b806306fdde03146100ef578063095ea7b31461010d57806318160ddd1461013d575b600080fd5b6100f7610319565b6040516101049190610e0c565b60405180910390f35b61012760048036038101906101229190610ec7565b6103a7565b6040516101349190610f22565b60405180910390f35b610145610499565b6040516101529190610f4c565b60405180910390f35b61017560048036038101906101709190610f67565b61049f565b6040516101829190610f22565b60405180910390f35b6101a560048036038101906101a09190610fba565b6105eb565b6040516101b6959493929190610ff6565b60405180910390f35b6101c761066e565b6040516101d49190611049565b60405180910390f35b6101e5610694565b6040516101f29190610e0c565b60405180910390f35b61021560048036038101906102109190610fba565b610722565b6040516102229190610f4c565b60405180910390f35b61024560048036038101906102409190611064565b61073a565b6040516102529190611049565b60405180910390f35b61027560048036038101906102709190610fba565b610779565b604051610286959493929190610ff6565b60405180910390f35b610297610930565b6040516102a49190610e0c565b60405180910390f35b6102c760048036038101906102c29190610ec7565b6109be565b6040516102d49190610f22565b60405180910390f35b6102e5610cc3565b6040516102f2919061114f565b60405180910390f35b610303610d51565b6040516103109190610f4c565b60405180910390f35b60008054610326906111a0565b80601f0160208091040260200160405190810160405280929190818152602001828054610352906111a0565b801561039f5780601f106103745761010080835404028352916020019161039f565b820191906000526020600020905b81548152906001019060200180831161038257829003601f168201915b505050505081565b600081600960003373ffffffffffffffffffffffffffffffffffffffff1673ffffffffffffffffffffffffffffffffffffffff16815260200190815260200160002060008573ffffffffffffffffffffffffffffffffffffffff1673ffffffffffffffffffffffffffffffffffffffff168152602001908152602001600020819055508273ffffffffffffffffffffffffffffffffffffffff163373ffffffffffffffffffffffffffffffffffffffff167f8c5be1e5ebec7d5bd14f71427d1e84f3dd0314c0f7b2291e5b200ac8c7c3b925846040516104879190610f4c565b60405180910390a36001905092915050565b60035481565b600081600860008673ffffffffffffffffffffffffffffffffffffffff1673ffffffffffffffffffffffffffffffffffffffff16815260200190815260200160002060008282546104f09190611201565b9250508190555081600860008573ffffffffffffffffffffffffffffffffffffffff1673ffffffffffffffffffffffffffffffffffffffff16815260200190815260200160002060008282546105469190611235565b9250508190555081600960008673ffffffffffffffffffffffffffffffffffffffff1673ffffffffffffffffffffffffffffffffffffffff16815260200190815260200160002060008573ffffffffffffffffffffffffffffffffffffffff1673ffffffffffffffffffffffffffffffffffffffff16815260200190815260200160002060008282546105d99190611201565b92505081905550600190509392505050565b60076020528060005260406000206000915090508060000154908060010160009054906101000a900473ffffffffffffffffffffffffffffffffffffffff16908060020160009054906101000a900473ffffffffffffffffffffffffffffffffffffffff16908060030154908060040160009054906101000a900460ff16905085565b600560009054906101000a900473ffffffffffffffffffffffffffffffffffffffff1681565b600280546106a1906111a0565b80601f01602080910402602001604051908101604052809291908181526020018280546106cd906111a0565b801561071a5780601f106106ef5761010080835404028352916020019161071a565b820191906000526020600020905b8154815290600101906020018083116106fd57829003601f168201915b505050505081565b60086020528060005260406000206000915090505481565b6006818154811061074a57600080fd5b906000526020600020016000915054906101000a900473ffffffffffffffffffffffffffffffffffffffff1681565b6000806000806000600760008773ffffffffffffffffffffffffffffffffffffffff1673ffffffffffffffffffffffffffffffffffffffff16815260200190815260200160002060000154600760008873ffffffffffffffffffffffffffffffffffffffff1673ffffffffffffffffffffffffffffffffffffffff16815260200190815260200160002060020160009054906101000a900473ffffffffffffffffffffffffffffffffffffffff16600760008973ffffffffffffffffffffffffffffffffffffffff1673ffffffffffffffffffffffffffffffffffffffff16815260200190815260200160002060010160009054906101000a900473ffffffffffffffffffffffffffffffffffffffff16600760008a73ffffffffffffffffffffffffffffffffffffffff1673ffffffffffffffffffffffffffffffffffffffff16815260200190815260200160002060030154600760008b73ffffffffffffffffffffffffffffffffffffffff1673ffffffffffffffffffffffffffffffffffffffff16815260200190815260200160002060040160009054906101000a900460ff169450945094509450945091939590929450565b6001805461093d906111a0565b80601f0160208091040260200160405190810160405280929190818152602001828054610969906111a0565b80156109b65780601f1061098b576101008083540402835291602001916109b6565b820191906000526020600020905b81548152906001019060200180831161099957829003601f168201915b505050505081565b600081600860003373ffffffffffffffffffffffffffffffffffffffff1673ffffffffffffffffffffffffffffffffffffffff168152602001908152602001600020541015610a42576040517f08c379a0000000000000000000000000000000000000000000000000000000008152600401610a39906112d7565b60405180910390fd5b610a4a610d57565b81600860003373ffffffffffffffffffffffffffffffffffffffff1673ffffffffffffffffffffffffffffffffffffffff1681526020019081526020016000206000828254610a999190611201565b9250508190555081600860008573ffffffffffffffffffffffffffffffffffffffff1673ffffffffffffffffffffffffffffffffffffffff1681526020019081526020016000206000828254610aef9190611235565b925050819055506000600760008573ffffffffffffffffffffffffffffffffffffffff1673ffffffffffffffffffffffffffffffffffffffff16815260200190815260200160002090506004548160000181905550838160020160006101000a81548173ffffffffffffffffffffffffffffffffffffffff021916908373ffffffffffffffffffffffffffffffffffffffff160217905550338160010160006101000a81548173ffffffffffffffffffffffffffffffffffffffff021916908373ffffffffffffffffffffffffffffffffffffffff16021790555060018160040160006101000a81548160ff0219169083151502179055508281600301819055506006849080600181540180825580915050600190039060005260206000200160009091909190916101000a81548173ffffffffffffffffffffffffffffffffffffffff021916908373ffffffffffffffffffffffffffffffffffffffff1602179055508373ffffffffffffffffffffffffffffffffffffffff163373ffffffffffffffffffffffffffffffffffffffff167fddf252ad1be2c89b69c2b068fc378daa952ba7f163c4a11628f55a4df523b3ef85604051610cb09190610f4c565b60405180910390a3600191505092915050565b60606006805480602002602001604051908101604052809291908181526020018280548015610d4757602002820191906000526020600020905b8160009054906101000a900473ffffffffffffffffffffffffffffffffffffffff1673ffffffffffffffffffffffffffffffffffffffff1681526020019060010190808311610cfd575b5050505050905090565b60045481565b600160046000828254610d6a9190611235565b92505081905550565b600081519050919050565b600082825260208201905092915050565b60005b83811015610dad578082015181840152602081019050610d92565b83811115610dbc576000848401525b50505050565b6000601f19601f8301169050919050565b6000610dde82610d73565b610de88185610d7e565b9350610df8818560208601610d8f565b610e0181610dc2565b840191505092915050565b60006020820190508181036000830152610e268184610dd3565b905092915050565b600080fd5b600073ffffffffffffffffffffffffffffffffffffffff82169050919050565b6000610e5e82610e33565b9050919050565b610e6e81610e53565b8114610e7957600080fd5b50565b600081359050610e8b81610e65565b92915050565b6000819050919050565b610ea481610e91565b8114610eaf57600080fd5b50565b600081359050610ec181610e9b565b92915050565b60008060408385031215610ede57610edd610e2e565b5b6000610eec85828601610e7c565b9250506020610efd85828601610eb2565b9150509250929050565b60008115159050919050565b610f1c81610f07565b82525050565b6000602082019050610f376000830184610f13565b92915050565b610f4681610e91565b82525050565b6000602082019050610f616000830184610f3d565b92915050565b600080600060608486031215610f8057610f7f610e2e565b5b6000610f8e86828701610e7c565b9350506020610f9f86828701610e7c565b9250506040610fb086828701610eb2565b9150509250925092565b600060208284031215610fd057610fcf610e2e565b5b6000610fde84828501610e7c565b91505092915050565b610ff081610e53565b82525050565b600060a08201905061100b6000830188610f3d565b6110186020830187610fe7565b6110256040830186610fe7565b6110326060830185610f3d565b61103f6080830184610f13565b9695505050505050565b600060208201905061105e6000830184610fe7565b92915050565b60006020828403121561107a57611079610e2e565b5b600061108884828501610eb2565b91505092915050565b600081519050919050565b600082825260208201905092915050565b6000819050602082019050919050565b6110c681610e53565b82525050565b60006110d883836110bd565b60208301905092915050565b6000602082019050919050565b60006110fc82611091565b611106818561109c565b9350611111836110ad565b8060005b8381101561114257815161112988826110cc565b9750611134836110e4565b925050600181019050611115565b5085935050505092915050565b6000602082019050818103600083015261116981846110f1565b905092915050565b7f4e487b7100000000000000000000000000000000000000000000000000000000600052602260045260246000fd5b600060028204905060018216806111b857607f821691505b602082108114156111cc576111cb611171565b5b50919050565b7f4e487b7100000000000000000000000000000000000000000000000000000000600052601160045260246000fd5b600061120c82610e91565b915061121783610e91565b92508282101561122a576112296111d2565b5b828203905092915050565b600061124082610e91565b915061124b83610e91565b9250827fffffffffffffffffffffffffffffffffffffffffffffffffffffffffffffffff038211156112805761127f6111d2565b5b828201905092915050565b7f796f7520646f6e2774206861766520656e6f7567680000000000000000000000600082015250565b60006112c1601583610d7e565b91506112cc8261128b565b602082019050919050565b600060208201905081810360008301526112f0816112b4565b905091905056fea2646970667358221220f51f4857b49d9cd6d174e4b41537c4c6e372361ec204d4d0bdc76d63b5254e8664736f6c63430008090033",
  "linkReferences": {},
  "deployedLinkReferences": {}
}